:100000000EC087C01CC01BC01AC019C018C017C0C2
:1000100016C015C014C013C012C011C010C01124E6
:100020001FBECFE5D2E0DEBFCDBF20E0A0E6B0E04E
:1000300001C01D92A336B207E1F702D07DC0E0CF28
:1000400087B3816187BB8AB583688ABD83B78160C6
:1000500083BF12BE19BC85B7836085BF8BB7806430
:100060008BBF78941092600081E08093610084E6F9
:1000700089BD2FE76AE176E0215060407040E1F7EA
:1000800000C0000088E289BD56E948EC3AEF28E25A
:1000900094E6809160008823E1F3809161008230D2
:1000A000D1F028F4882341F0813071F026C08330EC
:1000B000C9F08430F1F021C029BD809161008F5FCB
:1000C00080936100C49819C099BD809161008F5FD1
:1000D0008093610012C059BD809161008F5F809351
:1000E00061000BC049BD809161008F5F809361000A
:1000F00004C039BD10926100C49A8FE76AE176E0CE
:10010000815060407040E1F700C000001092600034
:10011000C0CF1F920F920FB60F9211248F93809130
:100120006000811103C081E0809360008F910F9087
:0C0130000FBE0F901F901895F894FFCFA1
:00000001FF
